:020000040800F2
:1000000000500020D94000089523000897230008DD
:10001000992300089B2300089D230008000000008E
:100020000000000000000000000000009F23000806
:10003000A123000800000000A3230008A523000856
:100040002141000821410008214100082141000808
:1000500021410008214100082141000821410008F8
:1000600021410008214100082141000821410008E8
:1000700021410008AD23000821410008214100086A
:1000800021410008214100082141000821410008C8
:1000900021410008214100082141000821410008B8
:1000A00021410008214100082141000821410008A8
:1000B0002141000821410008214100082141000898
:1000C0002141000821410008214100082141000888
:1000D000214100082141000821410008BD230008FA
:1000E00021410008214100082141000800000000D2
:1000F0000000000000000000000000000000000000
:0C01000000000000000000005FF808F1A3
:10010C000348044B834202D0034B03B1184770479A
:10011C007000002070000020000000000548064917
:10012C000B1AD90F01EBA301491002D0034B03B1F9
:10013C00184770477000002070000020000000007D
:10014C0010B5064C237843B9FFF7DAFF044B13B113
:10015C000448AFF300800123237010BD7000002011
:10016C0000000000F44C000808B5044B1BB1044916
:10017C000448AFF30080BDE80840CFE70000000062
:10018C0074000020F44C0008014B1868704700BF45
:10019C000000002070B50D4E0D4D761BB61006D02C
:1001AC00002455F8043B01349847A642F9D1094E76
:1001BC00094D04F099FD761BB61006D0002455F8B5
:1001CC00043B01349847A642F9D170BD6451000834
:1001DC00645100086C51000864510008024B014640
:1001EC00186800F039B900BF00000020024B01462E
:1001FC00186800F0CBB800BF00000020844641EA2C
:10020C00000313F0030349D1403A23D30B68036076
:10021C004B6843608B688360CB68C3600B69036178
:10022C004B6943618B698361CB69C3610B6A036260
:10023C004B6A43628B6A8362CB6AC3620B6B036348
:10024C004B6B43638B6B8363CB6BC363403040312D
:10025C00403ADBD230320BD30B6803604B684360FF
:10026C008B688360CB68C36010301031103AF3D2C6
:10027C000C3205D351F8043B40F8043B043AF9D254
:10028C00043208D0D2071CBF11F8013B00F8013B27
:10029C0001D30B8803806046704700BF082A13D334
:1002AC008B07B1D010F00303AED0C3F10403D21A04
:1002BC00DB071CBF11F8013B00F8013BA4D331F85C
:1002CC00023B20F8023B9FE7043AD9D3013A11F8DC
:1002DC00013B00F8013BF9D20B7803704B7843706B
:1002EC008B78837060467047830730B548D0541EB6
:1002FC00002A3FD00346CAB201E0013C3AD303F8CE
:10030C00012B9D07F9D1032C2DD9CDB245EA05253A
:10031C000F2C45EA054536D9A4F1100222F00F0C3A
:10032C0003F1200EE6444FEA121C03F1100242E9DD
:10033C00045542E9025510327245F8D10CF1010214
:10034C0014F00C0F03EB021204F00F0C13D0ACF1F1
:10035C00040323F003030433134442F8045B934275
:10036C00FBD10CF003042CB1CAB21C4403F8012BD2
:10037C009C42FBD130BD64461346002CF4D1F9E706
:10038C0003461446BFE71A46A446E0E7002952D0BC
:10039C0038B551F8043C0C1F002BB8BFE4180546C7
:1003AC0000F0A6F92B4A1368002B45D0A3420CD9B8
:1003BC0021686018834228D0636028461460BDE829
:1003CC00384000F097B9A3420FD81A465B68002B4F
:1003DC00F9D11168501884421DD034D36360546035
:1003EC002846BDE8384000F085B911685018A04285
:1003FC0015D028D8216860188342EFD118685B6843
:10040C000144C4E900135460EAE718685B680144CE
:10041C00C4E90013D1E7236819441160E0E72068B0
:10042C000144501883421160DAD1D3E9000301442E
:10043C00C2E90013D4E77047284663601460BDE836
:10044C00384000F057B90C2328462B60BDE83840E3
:10045C0000F050B98C000020F8B5CD1C25F0030538
:10046C0008350C2D38BF0C25002D064623DBA94280
:10047C0021D8264F00F03CF93A6822B3144603E029
:10048C0063682246FBB11C4623685B1BF8D40B2B1C
:10049C0015D8636894420CBF3B605360304600F043
:1004AC0029F904F10B00231D20F00700C21A01D01A
:1004BC001B1AA350F8BD0C2300203360F8BD236039
:1004CC001C442560EAE77968D1B12946304600F032
:1004DC001FF8431C01460CD0C41C24F00304A0429A
:1004EC0005D03046611A00F013F8013001D02560B8
:1004FC00D4E70C233046336000F0FCF80020F8BD44
:10050C00304600F005F87860DFE700BF8C00002073
:10051C00002238B5064D044608462A6003F08EFDCD
:10052C00431C00D038BD2B68002BFBD0236038BD9A
:10053C009400002080EA010C1CF0030F37D110F05E
:10054C00030C20F0030021F0030150F8042B08BF2A
:10055C0051F8043B0ED08CF0030C6FF07F434FEA44
:10056C00CC0C23FA0CFC51F8043B42EA0C0243EA93
:10057C000C0300BFA2F1013C9A4201BF2CEA020C11
:10058C001CF0803F50F8042B51F8043BF2D04FEA9A
:10059C0002604FEA1222012828BFB0EB036F08BF9C
:1005AC001B0AF4D003F0FF03000EC01A704710F0C2
:1005BC00030F0AD010F8012B11F8013B012A28BFB8
:1005CC009A42F4D0A2EB030070474DF8045D50F84A
:1005DC00042B01F0030521F0030151F8043B022D1B
:1005EC0026D04DD822F07F45B5EB132FA2F1013C5C
:1005FC002CEA020C0DD11CF0803C08BF51F8043BD6
:10060C000AD185EA0205B5EB036F0CD150F8042B27
:10061C00E8E74FEA13235BE03CF07F4C54D10B78B6
:10062C004FEA126554E04FEA126503F0FF034FE006
:10063C004FEA0245A2F1013C4FEA15452CEA020CA7
:10064C00B5EB134F18D11CF0803C08BF51F8043B9C
:10065C0007D185EA0205B5EB034F09D150F8042BFD
:10066C00E6E75FEA0C4C2FD10B884FEA12452FE0DE
:10067C004FEA03434FEA12454FEA134328E000BF09
:10068C0002F0FF05B5EB136FA2F1013C2CEA020C52
:10069C000DD11CF0803C08BF51F8043B0AD185EA0F
:1006AC000205B5EB032F0AD150F8042BE8E74FEA0B
:1006BC0013630DE012F0FF0F06D051F8043B4FEA24
:1006CC00122523F07F4303E04FF0000020BC70475D
:1006DC0005F0FF0203F0FF00012828BF904204BF81
:1006EC002D0A1B0AF4D0A2EB000020BC704700BFFF
:1006FC00704700BF704700BF80F0004002E000BFB1
:10070C0081F0004142001FBF5FEA410392EA030FF0
:10071C007FEA226C7FEA236C6AD04FEA1262D2EB3A
:10072C001363C1BFD218414048404140B8BF5B423F
:10073C00192B88BF704710F0004F40F4000020F0D8
:10074C007F4018BF404211F0004F41F4000121F0EE
:10075C007F4118BF494292EA030F3FD0A2F1010238
:10076C0041FA03FC10EB0C00C3F1200301FA03F176
:10077C0000F0004302D5494260EB4000B0F5000F99
:10078C0013D3B0F1807F06D340084FEA310102F158
:10079C000102FE2A51D2B1F1004F40EBC25008BF0A
:1007AC0020F0010040EA03007047490040EB0000D4
:1007BC00013A28BFB0F5000FEDD2B0FA80FCACF1D5
:1007CC00080CB2EB0C0200FA0CF0AABF00EBC25002
:1007DC0052421843BCBFD0401843704792F0000FF0
:1007EC0081F4000106BF80F400000132013BB5E743
:1007FC004FEA41037FEA226C18BF7FEA236C21D0B9
:10080C0092EA030F04D092F0000F08BF084670471D
:10081C0090EA010F1CBF0020704712F07F4F04D1EB
:10082C00400028BF40F00040704712F100723CBFFE
:10083C0000F50000704700F0004343F0FE4040F428
:10084C00000070477FEA226216BF08467FEA2363E6
:10085C000146420206BF5FEA412390EA010F40F4D1
:10086C00800070474FF0000304E000BF10F000431D
:10087C0048BF40425FEA000C08BF704743F0964304
:10088C0001464FF000001CE050EA010208BF70471F
:10089C004FF000030AE000BF50EA010208BF7047A6
:1008AC0011F0004302D5404261EB41015FEA010CBB
:1008BC0002BF84460146002043F0B64308BFA3F1B3
:1008CC008053A3F50003BCFA8CF2083AA3EBC25395
:1008DC0010DB01FA02FC634400FA02FCC2F12002B4
:1008EC00BCF1004F20FA02F243EB020008BF20F0EB
:1008FC000100704702F1200201FA02FCC2F1200251
:10090C0050EA4C0021FA02F243EB020008BF20EA45
:10091C00DC7070474FF0FF0C1CEAD0521EBF1CEA73
:10092C00D15392EA0C0F93EA0C0F6FD01A4480EA61
:10093C00010C400218BF5FEA41211ED04FF000634A
:10094C0043EA501043EA5111A0FB01310CF0004076
:10095C00B1F5000F3EBF490041EAD3715B0040EA9C
:10096C00010062F17F02FD2A1DD8B3F1004F40EB6C
:10097C00C25008BF20F00100704790F0000F0CF03F
:10098C00004C08BF49024CEA502040EA51207F3A03
:10099C00C2BFD2F1FF0340EAC250704740F40000DE
:1009AC004FF00003013A5DDC12F1190FDCBF00F0CF
:1009BC0000407047C2F10002410021FA02F1C2F17D
:1009CC00200200FA02FC5FEA310040F1000053EA19
:1009DC004C0308BF20EADC70704792F0000F00F067
:1009EC00004C02BF400010F4000F013AF9D040EA6D
:1009FC000C0093F0000F01F0004C02BF490011F401
:100A0C00000F013BF9D041EA0C018FE70CEAD153FE
:100A1C0092EA0C0F18BF93EA0C0F0AD030F0004C7E
:100A2C0018BF31F0004CD8D180EA010000F0004032
:100A3C00704790F0000F17BF90F0004F084691F0F0
:100A4C00000F91F0004F14D092EA0C0F01D142022A
:100A5C000FD193EA0C0F03D14B0218BF084608D1F3
:100A6C0080EA010000F0004040F0FE4040F400003D
:100A7C00704740F0FE4040F4400070474FF0FF0CD0
:100A8C001CEAD0521EBF1CEAD15392EA0C0F93EA17
:100A9C000C0F69D0A2EB030280EA010C49024FEA69
:100AAC00402037D04FF0805343EA111143EA101322
:100ABC000CF000408B4238BF5B0042F17D024FF4DA
:100ACC00000C8B4224BF5B1A40EA0C00B3EB510FB5
:100ADC0024BFA3EB510340EA5C00B3EB910F24BF9E
:100AEC00A3EB910340EA9C00B3EBD10F24BFA3EB23
:100AFC00D10340EADC001B0118BF5FEA1C1CE0D1EB
:100B0C00FD2A3FF650AF8B4240EBC25008BF20F09D
:100B1C00010070470CF0004C4CEA50207F32C2BFF1
:100B2C00D2F1FF0340EAC250704740F400004FF08E
:100B3C000003013A37E792F0000F00F0004C02BFBF
:100B4C00400010F4000F013AF9D040EA0C0093F089
:100B5C00000F01F0004C02BF490011F4000F013BE3
:100B6C00F9D041EA0C0195E70CEAD15392EA0C0F4B
:100B7C0008D142027FF47DAF93EA0C0F7FF470AF83
:100B8C00084676E793EA0C0F04D14B023FF44CAFC6
:100B9C0008466EE730F0004C18BF31F0004CCAD15B
:100BAC0030F000427FF45CAF31F000437FF43CAF97
:100BBC005FE700BF4FF0FF3C06E000BF4FF0010CB9
:100BCC0002E000BF4FF0010C4DF804CD4FEA40029B
:100BDC004FEA41037FEA226C18BF7FEA236C11D0E5
:100BEC0001B052EA530C18BF90EA010F58BFB2EB98
:100BFC00030088BFC81738BF6FEAE17018BF40F018
:100C0C00010070477FEA226C02D15FEA402C05D1CB
:100C1C007FEA236CE4D15FEA412CE1D05DF8040B50
:100C2C00704700BF844608466146FFE70FB5FFF7E3
:100C3C00C9FF002848BF10F1000F0FBD4DF808ED9B
:100C4C00FFF7F4FF0CBF012000205DF808FB00BF8C
:100C5C004DF808EDFFF7EAFF34BF012000205DF8E6
:100C6C0008FB00BF4DF808EDFFF7E0FF94BF012033
:100C7C0000205DF808FB00BF4DF808EDFFF7D2FF30
:100C8C0094BF012000205DF808FB00BF4DF808ED73
:100C9C00FFF7C8FF34BF012000205DF808FB00BF40
:100CAC0042000ED2B2F1FE4F0BD34FF09E03B3EBCA
:100CBC00126209D44FEA002343F0004323FA02F0F6
:100CCC0070474FF00000704712F1610F01D14202E2
:100CDC0002D14FF0FF3070474FF00000704700BF5B
:100CEC0003685A004CBF43F0004323F00043184400
:100CFC00704700BF2DE9F84339B34F1E0446154623
:100D0C003E464FF0000808EB060101EBD17149108B
:100D1C0004EBC1094846FFF7E3FF0346C80008305F
:100D2C008F4220440BD0AB420BD8FFF7D9FF0138D0
:100D3C00A84201F10108E6D34846BDE8F883AB426E
:100D4C00FAD9884501D04E1EDDE74FF00009484620
:100D5C00BDE8F883012807D0022807D0044B0028EF
:100D6C000CBF184600207047024870470248704775
:100D7C0051140008551400085914000830B5244BC0
:100D8C00044683B08D1E3BB3284601A9AFF3008007
:100D9C00E8B101992A46FFF7ADFF0146B8B1FFF75C
:100DAC009FFF4B68A064012B2ED0002B27DB081D66
:100DBC00FFF796FF0023C4E913030368002B12DB33
:100DCC00FFF78EFF03460020236103B030BD0023E4
:100DDC000920236103B030BD0E4B0F491846C91AC8
:100DEC00C9100191D6E7C3F30360FFF7B3FF0028E6
:100DFC00034614BF00200920236103B030BD01233A
:100E0C00081DC4E91303D8E7002305202361DCE7A0
:100E1C0000000000FC4F000864510008036810B586
:100E2C00DA07044606D49B0700F1480009D500F008
:100E3C005DFC2368590709D51A070ED5DB0613D5B7
:100E4C0010BD00F04BFC23685907F5D404F1D00019
:100E5C0000F054FC23681A07F0D404F5A87000F0D5
:100E6C0055FC2368DB06EBD404F5E870BDE81040B4
:100E7C0000F090BC092070470346006800B118448C
:100E8C00704700BF704700BF70B504460E46204641
:100E9C00316CFFF773FF054698B9D6F840C032465F
:100EAC00214601202369C4F814C098470828EED0C5
:100EBC00072806D12846316CFFF7E4FF301D00F0FF
:100ECC0001FC00F09BFE00BF2DE9F0474FF0000A3B
:100EDC00ADF5727D0DF10C0E01F1040CC768D0F864
:100EEC00188006461446BCE80F00AEE80F00BCE8BC
:100EFC000F00AEE80F00BCE80F00AEE80F009CE856
:100F0C000F0002AD8EE80F00C5F800A021E02B6C9D
:100F1C004FF4F072294673617AA8FFF76FF93146E6
:100F2C00504633697AAA9847889C82466C6433464B
:100F3C00324649460120CDE90058B8470446F0B97D
:100F4C004FF4F07228467AA9FFF758F9BAF1080F56
:100F5C001BD13046296CFFF711FF04F109095FFA28
:100F6C0089FA04460028D2D0A96B3346696432460C
:100F7C000120CDE900584AF01001B84700B109240E
:100F8C0020460DF5727DBDE8F087BAF1070FF6D15A
:100F9C002046296CFFF776FF03A800F093FB00BFF7
:100FAC00406C7047F0B54FF0FF37CB6BF9B00B646A
:100FBC0001AC01F1040C0E460546BCE80F000FC451
:100FCC00BCE80F000FC4BCE80F000FC49CE80F0076
:100FDC0084E80F00009706E06A4629462B6998477B
:100FEC000828044608D128461099FFF7C7FE0028A8
:100FFC00F2D0092079B0F0BD6846FFF70FFF062C40
:10100C00F7D131462846FFF73FFF00BF10B4144616
:10101C008461DC6BC16000221C64194610BC53E770
:10102C0070B54369C6680B64AEB90A4603690446D9
:10103C000D46014602209847072805D008280FD1F5
:10104C0029462046FFF720FF3046296CFFF71AFF90
:10105C00281D00F037FB0122FFF736FF00F0CEFD14
:10106C0000F0CCFDC2682AB1D1F83CC00022C1F816
:10107C0040C029E796E700BF704700BF8368014670
:10108C000BB1012018477047012912D009D873B948
:10109C000F2A0CD800EB820042681846009B1A609D
:1010AC0070470339012994BF0120022070470220A8
:1010BC0070470846704700BF002300B585B00A464C
:1010CC0003A900911946FFF7DFFF039805B05DF8FF
:1010DC0004FB00BF012912D009D873B90F2A0CD810
:1010EC00009900EB82020968184651607047033979
:1010FC00012994BF01200220704702207047084646
:10110C00704700BF002310B584B003AC0392009469
:10111C000A461946FFF7DEFF04B010BD70B54FF05C
:10112C00FF36D36BADF50E7D13640DF15C0E02F141
:10113C00040C05460C46BCE80F00AEE80F00BCE8FA
:10114C000F00AEE80F00BCE80F00AEE80F009CE803
:10115C000F008EE80F00169612E00C2116A86A46B6
:10116C00FFF7D0FF214616A8A84778B96946082092
:10117C00049B16AA98470528064608D0092805D0CE
:10118C0068462699FFF7FAFD0028E6D0092616A82E
:10119C00FFF744FE30460DF50E7D70BD2DE9F04F86
:1011AC001E46CC6C89B054F8043B0D46174600F033
:1011BC0003080694002E79D002228DF81C201A0CFC
:1011CC008DF81D201B04D2B2059304EB82042B6D09
:1011DC00B8F1020F08BFAC6B13F001030CD038460A
:1011EC0005A900F071FB18B9082009B0BDE8F08F13
:1011FC00092009B0BDE8F08FD4F800A0BAF1000FB7
:10120C00EDD0019300F008030293022E4AD0B4F8FB
:10121C0000A0B4F802900434AA6C0F21384629F0CF
:10122C00010B9344FFF748FF834539D82AF001029C
:10123C005A44824294BF002001204FEA490303F034
:10124C0002030AF0010A43EA0A03012B49D0022BDC
:10125C0032D0002BCCD1B8F1000F02D0002840F0D6
:10126C00CE800434D4F800A0BAF1000FCDD13846AA
:10127C0005A900F029FB0028BAD1019B002BB3D0A3
:10128C000F213846FFF718FF0E2102463846FFF7AC
:10129C0039FF38460F216A4AFFF734FF0720A8E7C9
:1012AC000020CAE7D4F804900834B5E71B02059374
:1012BC000323ADF81C308AE7236823F0004BB8F108
:1012CC00000F45D128B1029A002A5CD0BBF1000F67
:1012DC0074D0002B00DA04340BF1010B04EB8B04FB
:1012EC00C0E7B8F1000F19D1B0B163682268991C3E
:1012FC004FEAD2723FF47CAF05F1580101330491EF
:10130C0000F09180201DFFF7B7FD04AB0146284685
:10131C00AFF3008000285CD10834A3E70D213846D8
:10132C00D5F82090FFF7C8FE8145F5D1AB6A9C42F9
:10133C00F2D12046FFF7D4FC0F2102463846FFF7C6
:10134C00E1FE38462A460021FFF7DCFE072050E775
:10135C000D213846D5F82090FFF7AEFE814501D01F
:10136C002368B6E7AB6A9C42FAD104230022C5E994
:10137C000B23E318C5F828B06B632368002B5ADBEA
:10138C0001230193A8E705F15803CDF80C80914691
:10139C00B04604F1040A1E460EE050460496FFF7D0
:1013AC006BFD0022014604AB284609F101090AF144
:1013BC00040AAFF30080E8B9D945EED10D213846C7
:1013CC00FFF77AFE0346049A0620C5E909242B622E
:1013DC000FE781460D213846FFF76EFEB9F1020F7B
:1013EC00286225D12B46049A43F82C2F6B620620D9
:1013FC00AC62FEE646462368DDF80C8069E72046C1
:10140C00FFF76EFC02460434AC6328461446AFF377
:10141C00008000283FF4ECAE384622460F21FFF73F
:10142C0071FE0720E5E60D213846FFF745FE2862E0
:10143C00049B6B62DBE70BF1010004EB800079E7A6
:10144C00000000000023A9E60123A7E60223A5E67D
:10145C002DE9F043064615461C46C3B0042900F29C
:10146C00B880DFE801F09C56B62D0300002C40F04C
:10147C00B080102A00F2AD800368D80600F1F1802C
:10148C0020AF384600F090F9012438460023B16BA8
:10149C0004FA03F22A4203F1010305D00A4652F87A
:1014AC0004CB1146C0F800C0042B00F10400EFD1AE
:1014BC003846B16300F06EF9002043B0BDE8F0830C
:1014CC00032C40F0868094B204EB1243102B4FEAAD
:1014DC0012457ED803681F0700F1CB8020AF384639
:1014EC0000F036F9B26B07EBC50154B10B4601EBBA
:1014FC00C401D01AE4001D5843F8045B8B42FAD1A6
:10150C0022443846B26300F001F9002043B0BDE834
:10151C00F083012C4FEA124895B256D0052C58D1C5
:10152C0008EB0509B9F1200F53D8B8F10F0F73D997
:10153C00A946002D40F08480B36B65B320AF4FF00B
:10154C00000907EBC807043F03EBC50553F8041B60
:10155C00AB4247F8041FF9D1B9F1000F0FD06F4619
:10156C004146102938BF102107EBC101843903EB28
:10157C00C90553F8040BAB4241F8040FF9D1012C07
:10158C007FD0B8F10F0FB56342D9B9F1000F02D07B
:10159C00684600F0B3F8002043B0BDE8F083C4B94E
:1015AC0023460124826B371DA8B204FA03F10142D1
:1015BC001CBF52F8041B47F823100133102BF4D135
:1015CC0015F40050E7D1B26304E008EB0503102BCF
:1015DC0003D9022043B0BDE8F083B8F10F0FF8D85F
:1015EC003368DA0706D5304623F0030340F8483B4E
:1015FC0000F078F820AF384600F074F8B36B002D8B
:10160C009DD11D4604353846B56300F067F8C2E736
:10161C0020A800F06BF8B8E7B9F1100F3FD9A9F189
:10162C0010093368D90708D5304623F0010343F07D
:10163C00020340F8483B00F05DF8B9F1000F31D0DF
:10164C0033685A071FD4B8F10F0F24D96F46C8F16D
:10165C001005384600F056F8002DB36B80DD20AF36
:10166C006FE723F01003336006F5E87000F09CF888
:10167C0006E723F00803036000F5A87000F068F893
:10168C002CE720AFBEE7304623F0040340F8D03BF4
:10169C0000F038F8D7E720A800F02CF8D6E74FF088
:1016AC000009BEE7B8F10F0F3FF646AF20AF384642
:1016BC0000F020F8B36B002D7FF441AF384600F0FA
:1016CC0015F868E700F1340191E838009C46A6460D
:1016DC004CF8045D90E8FF0FE54600BD90EC210B43
:1016EC00704700BF80EC210B704700BF90EC200BC3
:1016FC00704700BF80EC200B704700BFD0EC200B74
:10170C00704700BFC0EC200B704700BFF0EC02012B
:10171C00F0EC0211F0EC0221F0EC0231F0EC0241A1
:10172C00F0EC0251F0EC0261F0EC0271F0EC028191
:10173C00F0EC0291F0EC02A1F0EC02B1F0EC02C181
:10174C00F0EC02D1F0EC02E1F0EC02F1704700BFDA
:10175C00E0EC0201E0EC0211E0EC0221E0EC0231E1
:10176C00E0EC0241E0EC0251E0EC0261E0EC0271D1
:10177C00E0EC0281E0EC0291E0EC02A1E0EC02B1C1
:10178C00E0EC02C1E0EC02D1E0EC02E1E0EC02F1B1
:10179C00704700BFB0FC0181B0FC0191B0FC01A10D
:1017AC00B0FC01B1704700BFA0FC0181A0FC01910D
:1017BC00A0FC01A1A0FC01B1704700BFEC4600B534
:1017CC002DE900502DE9FF1F4FF000032DE90C000F
:1017DC0001A9FFF7E7FBDDF840E012B0704700BF4E
:1017EC00EC4600B52DE900502DE9FF1F4FF000032A
:1017FC002DE90C0001A9FFF713FCDDF840E012B055
:10180C00704700BFEC4600B52DE900502DE9FF1FD5
:10181C004FF000032DE90C0001A9FFF723FCDDF8C4
:10182C0040E012B0704700BFEC4600B52DE9005007
:10183C002DE9FF1F4FF000032DE90C0001ABFFF762
:10184C00E5FBDDF840E012B0704700BFEC4600B598
:10185C002DE900502DE9FF1F4FF000032DE90C007E
:10186C0001AAFFF75BFCDDF840E012B0704700BF47
:10187C00027A03467AB9427AA2B14FF0030C41685E
:10188C00013A427208680A1D5A60020283F808C0C5
:10189C00000E1A6070470068013A1A7202021A6050
:1018AC00000E7047B0207047002300B585B003A927
:1018BC0000910C221946FFF7E7FB039805B05DF881
:1018CC0004FB00BFF0E700BF2DE9F0434FF0000828
:1018DC0005460E4685B03046FFF7CAFFB0280446D1
:1018EC0000F0BA80070620D500F0F003802B4DD015
:1018FC00902B36D0A02B60D0B02B73D0C02B00F027
:10190C008A8000F0F803D02B0BD100F007020132D3
:10191C0005230121284642F40022FFF799FD0028F7
:10192C00D9D0092005B0BDE8F0838300DBB21F1DC0
:10193C0000230DF10C0919460D222846CDF8009014
:10194C00FFF7A2FB039B60064CBFDF1BFF180023B5
:10195C000D2228461946CDF800900397FFF7BAFBE5
:10196C00B9E700F00D030D2BDBD0002303AF1946B4
:10197C0000F00F0200972846FFF786FB00230D228C
:10198C00284619460097FFF7A5FBA4E73046FFF75A
:10199C006FFF24022043B0F5004FC2D00023040196
:1019AC0019462846A2B2FFF753FD0028B9D114F40A
:1019BC00004F18BF4FF001088DE7C3434FF47F620F
:1019CC0003F007031A410023010702F47F6248BFAA
:1019DC0042F4804228461946FFF73AFD00283FF4AE
:1019EC007AAF9EE7B1283CD0B22800F0B080B32883
:1019FC004AD000F0FC03B42B93D0012300F0070273
:101A0C001A442846194642F40022FFF721FD00280B
:101A1C003FF461AF85E7C6284FD0C72861D000F0EE
:101A2C00F803C02B70D0C8287CD0C9287FF479AFBC
:101A3C003046FFF71DFF05230246012128461403FB
:101A4C0002F00F0204F470240A442243FFF700FD55
:101A5C0000283FF440AF64E7B8F1000F1CD0002021
:101A6C0060E73046FFF704FF024600283FF459AF09
:101A7C0010F0F0037FF455AF19462846FFF7E8FC49
:101A8C0000283FF428AF4CE73046FFF7F1FE012366
:101A9C00024619462846D2E703AC43460E2241467D
:101AAC0028460094FFF7F0FA43460F222846414699
:101ABC000094FFF70FFB404634E73046FFF7D8FEA3
:101ACC0002460323140302F00F0204F470240132C3
:101ADC00284619462243FFF7BBFC00283FF4FBAE17
:101AEC001FE73046FFF7C4FE024600283FF419AF4B
:101AFC0010F0F0037FF415AF04212846FFF7A8FC83
:101B0C0000283FF4E8AE0CE7032300F00F0201328B
:101B1C002846194642F42022FFF79AFC00283FF48D
:101B2C00DAAEFEE63046FFF7A3FE0246012102F0D4
:101B3C00F00402F00F0210340A440523284642EA4E
:101B4C000432FFF785FC00283FF4C5AEE9E600231C
:101B5C000DF10C090D2219462846CDF80090FFF71F
:101B6C0093FA3046FFF784FE02064FF002040CD5C0
:101B7C00039B00F07F00A040184403903046FFF711
:101B8C0077FE030604F10704F2D4039B00F07F02F6
:101B9C00A24003F501731A440023039228460D2238
:101BAC001946CDF80090FFF795FA94E60B464FF0E6
:101BBC00030C00B5C26C1846536885B0083202920B
:101BCC0001A91A0E1B028DF80CC001938DF80D2083
:101BDC00FFF77AFE05B05DF804FB00BF08B5FFF710
:101BEC0071FE806C08BD00BF08B5FFF76BFEC06CC2
:101BFC00C379023300EB830008BD00BF062008B593
:101C0C0000F09AF8012002F047FA00BF38B5446C96
:101C1C000CB1002038BD80210546FEF71DFC0246A4
:101C2C00686430B1031F7C3243F8044F9342FBD1FC
:101C3C00EFE74FF0FF3038BD1F29F8B5054608D83F
:101C4C00466C0C4617464EB156F8240046F82470E4
:101C5C00F8BD16234FF0FF302B60F8BD8021FEF746
:101C6C00FBFB0646686440B10021031F00F17C05B4
:101C7C0043F8041F9D42FBD1E6E74FF0FF30F8BD5F
:101C8C001F2938B5054620D8426C0C466AB152F86B
:101C9C00213053B1012B16D0591C10D000252046F1
:101CAC0042F824509847284638BD284600F0F8F8EA
:101CBC00224601462846BDE8384000F0DDB8162320
:101CCC0001202B6038BD002038BD16234FF0FF30AB
:101CDC002B6038BD1F292BD8426C38B50C460546F5
:101CEC0082B152F8243002EB84024BB1591C1AD049
:101CFC00012B16D00025204615609847284638BD84
:101D0C00012038BD8021FEF7A7FB0246686460B154
:101D1C000020131F02F17C0143F8040F9942FBD100
:101D2C00DFE7032038BD022038BD4FF0FF3038BD4F
:101D3C004FF0FF30704700BF38B5144B1F281D689B
:101D4C001FD86A6C044662B152F820304BB1012B9B
:101D5C0015D0591C0FD0002542F820509847284622
:101D6C0038BD284600F09CF8224601462846BDE8BE
:101D7C00384000F081B8162301202B6038BD0020BC
:101D8C0038BD16234FF0FF302B6038BD000000200B
:101D9C00124B1F2870B51E6808D80D46716C04468E
:101DAC0049B151F8240041F8245070BD16234FF06E
:101DBC00FF30336070BD80213046FEF74DFB01468D
:101DCC00706440B10022031F00F17C0C43F8042F17
:101DDC006345FBD1E5E74FF0FF3070BD00000020FC
:101DEC0038B50B4B1D686C6C0CB1002038BD8021D4
:101DFC002846FEF731FB686438B1031F00F17C0202
:101E0C0043F8044F9342FBD1EFE74FF0FF3038BD5E
:101E1C000000002038B5174B1F281D6827D86A6CA6
:101E2C00044682B152F8243002EB84024BB1591CA7
:101E3C001BD0012B17D0002520461560984728464B
:101E4C0038BD012038BD80212846FEF705FB02462F
:101E5C00686460B10020131F02F17C0143F8040F89
:101E6C008B42FBD1DEE7032038BD022038BD4FF09A
:101E7C00FF3038BD0000002070B50026074D044629
:101E8C00084611462E6002F0FFF8431C00D070BDCE
:101E9C002B68002BFBD0236070BD00BF940000208A
:101EAC0002F0F0B872B6FEE700B591B0282200211E
:101EBC0006A8FEF719FA00230193029303930493E7
:101ECC000593012206924FF4803307930A92022263
:101EDC000D920E934FF4E0130F9306A800F0F2FA54
:101EEC0080B90F23019302210291002303934FF435
:101EFC0080620492059301A800F016FD20B911B080
:101F0C005DF804FBFFF7CEFFFFF7CCFF08B500F040
:101F1C009FFAFFF7C9FF00F00DF800F067F800F02A
:101F2C00BBF900F0B1F800F07BF800F06BF902F0AF
:101F3C00BFFDFEE72DE9F04188B000240494059420
:101F4C0006940794264B9A6942F010029A619A699A
:101F5C0002F010020092009A9A6942F020029A61F3
:101F6C009A6902F020020192019A9A6942F00402E5
:101F7C009A619A6902F004020292029A9A6942F0FA
:101F8C0008029A619B6903F008030393039BDFF833
:101F9C00548022464FF46041404600F0B3FE124D8F
:101FAC0022464FF48061284600F0ACFE4FF46043AB
:101FBC0004930127059706940226079604A9404628
:101FCC0000F08EFD4FF480630493059706940796FA
:101FDC0004A9284600F084FD08B0BDE8F08100BFDC
:101FEC0000100240001001400008014000B583B011
:101FFC000A4B5A6942F001025A615B6903F0010312
:10200C000193019B002211460D2001F035F80D20A3
:10201C0001F06AF803B05DF804FB00BF0010024049
:10202C0000B58DB02422002103A8FEF75DF9002332
:10203C00019302931248134A0260436083604FF687
:10204C00FF72C26003614361836103230393012325
:10205C000593099303A901F05BF950B9002301938F
:10206C00029301A9064801F00FFC28B90DB05DF8E8
:10207C0004FBFFF717FFF1E7FFF714FFF6E700BFCC
:10208C0098000020002C014000B58DB024220021C6
:10209C0003A8FEF729F900230193029312484FF08D
:1020AC0080420260436083604FF6FF72C26003613E
:1020BC0083610323039301230593099303A901F07F
:1020CC0027F950B900230193029301A9064801F0A6
:1020DC00DBFB28B90DB05DF804FBFFF7E3FEF1E77D
:1020EC00FFF7E0FEF6E700BFE000002000B589B086
:1020FC000023049305930693079303681F4A9342A6
:10210C0005D0B3F1804F1DD009B05DF804FB1C4B1A
:10211C009A6942F400629A619A6902F40062009230
:10212C00009A9A6942F004029A619B6903F00403D5
:10213C000193019B4FF44073049304A9114800F0E0
:10214C00CFFCE1E703F50433DA6942F00102DA610E
:10215C00DA6902F001020292029A9A6942F00402D0
:10216C009A619B6903F004030393039B0323049379
:10217C0004A9044800F0B4FCC6E700BF002C0140E1
:10218C0000100240000801400268094B9A4200D03E
:10219C00704782B003F50333DA6942F00202DA6168
:1021AC00DB6903F002030193019B02B0704700BF8F
:1021BC000004004000B587B00023029303930493FE
:1021CC00059302680D4B9A4202D007B05DF804FBF0
:1021DC0003F503339A6942F004029A619B6903F098
:1021EC0004030193019BC0230293022303930593E1
:1021FC0002A9034800F074FCE7E700BF00040040AC
:10220C000008014000B58BB000230893099301939B
:10221C000293039304930593069307931C481D4A5A
:10222C0002604360836040F6CA02C260036183614E
:10223C0001F042F8F8B900230893099308A914484F
:10224C0001F022FBD0B96023019300220292039289
:10225C00059201A90E4801F0E9F890B904220DEBA2
:10226C0002010B4801F0E2F870B90948FFF7A2FF30
:10227C000BB05DF804FBFFF715FEDCE7FFF712FE71
:10228C00E1E7FFF70FFEE9E7FFF70CFEEDE700BF14
:10229C00280100200004004008B50A480A4B0360DE
:1022AC004FF4E133436000238360C36003610C226D
:1022BC0042618361C36101F0D5FB00B908BDFFF732
:1022CC00F1FDFBE7B40100200048004070B586B07A
:1022DC00002302930393049305930268264B9A42BE
:1022EC0001D006B070BD044603F5E433DA6942F45C
:1022FC008022DA61DA6902F480220092009A9A69EB
:10230C0042F008029A619B6903F008030193019B58
:10231C004FF4806302930223039303230593174E18
:10232C0002A9304600F0DCFB4FF400630293002559
:10233C000395049502A9304600F0D2FB1048114BCE
:10234C000360456085608023C360056145618561DC
:10235C00C56100F0FDFC58B9094BE3635C620022D7
:10236C001146272000F088FE272000F0BDFEB8E7BC
:10237C00FFF798FDF0E700BF00480040000C01405B
:10238C007001002030000240FEE7FEE7FEE7FEE7AA
:10239C00FEE770477047704708B500F06BF808BD52
:1023AC0008B5024800F0B4FD08BD00BF7001002064
:1023BC0008B5024801F03CFC08BD00BFB401002088
:1023CC0082B00E4B9A6942F001029A619A6902F04E
:1023DC0001020092009ADA6942F08052DA61DB69FC
:1023EC0003F080530193019B054A536823F0E0638B
:1023FC0043F00073536002B0704700BF00100240FE
:10240C000000014010B504460E4B18784FF47A7357
:10241C00B3FBF0F30C4A1068B0FBF3F000F072FE63
:10242C0068B90F2C01D901200AE0002221464FF097
:10243C00FF3000F021FE054B1C60002000E0012065
:10244C0010BD00BF640000206C000020680000205C
:10245C0008B5074A136843F010031360032000F01B
:10246C00F9FD0F20FFF7CEFFFFF7AAFF002008BDF4
:10247C0000200240034A1168034B1B780B44136085
:10248C00704700BFFC01002064000020014B18685D
:10249C00704700BFFC01002082B0084B1B68084A43
:1024AC00A2FB03235B0A00FB03F3019300BF019B18
:1024BC005A1E0192002BF9D102B070476C0000201B
:1024CC00D34D6210002800F0F18170B582B0044643
:1024DC00036813F0010F2CD0994B5B6803F00C03CD
:1024EC00042B1DD0964B5B6803F00C03082B12D009
:1024FC006368B3F5803F41D0002B55D103F1804385
:10250C0003F504331A6822F480321A601A6822F434
:10251C0080221A6037E08A4B5B6813F4803FE7D067
:10252C00874B1B6813F4003F03D06368002B00F04B
:10253C00BF81236813F0020F75D0814B5B6813F0D9
:10254C000C0F5FD07E4B5B6803F00C03082B54D050
:10255C002369002B00F08A807A4B01221A60FFF766
:10256C0095FF0546764B1B6813F0020F75D1FFF7EC
:10257C008DFF401B0228F5D903209EE1704A136899
:10258C0043F480331360636843B3FFF77FFF054662
:10259C006B4B1B6813F4003FCBD1FFF777FF401B4D
:1025AC006428F5D9032088E1B3F5A02F09D0644B3A
:1025BC001A6822F480321A601A6822F480221A6097
:1025CC00E1E703F18043A3F53C331A6842F480221F
:1025DC001A601A6842F480321A60D4E7FFF756FF8B
:1025EC000546574B1B6813F4003FA2D0FFF74EFF74
:1025FC00401B6428F5D903205FE1514B5B6813F451
:10260C00803FA5D14E4B1B6813F0020F03D02369FA
:10261C00012B40F04F814A4A136823F0F80361699B
:10262C0043EAC1031360236813F0080F33D0A36986
:10263C00002B5CD0434B0122C3F88024FFF726FF0C
:10264C0005463F4B5B6A13F0020F21D1FFF71EFFCB
:10265C00401B0228F5D903202FE1394A136823F0D7
:10266C00F803616943EAC1031360DCE7354B0022D0
:10267C001A60FFF70BFF0546314B1B6813F0020F76
:10268C00D1D0FFF703FF401B0228F5D9032014E13A
:10269C000120FFF701FF236813F0040F00F0968070
:1026AC00274BDB6913F0805F34D1254BDA6942F09C
:1026BC008052DA61DB6903F080530193019B0125A1
:1026CC00214B1B6813F4807F26D0E368012B3DD08F
:1026DC00002B53D103F1804303F504331A6A22F023
:1026EC0001021A621A6A22F004021A6233E0154BD4
:1026FC000022C3F88024FFF7C9FE0546104B5B6A25
:10270C0013F0020FC7D0FFF7C1FE401B0228F5D90A
:10271C000320D2E00025D3E70B4A136843F48073FF
:10272C001360FFF7B3FE0646074B1B6813F4807F5C
:10273C00CBD1FFF7ABFE801B6428F5D90320BCE09E
:10274C000010024000004242007000405F4A136AD1
:10275C0043F001031362E36833B3FFF797FE0646B9
:10276C005A4B1B6A13F0020F2FD1FFF78FFE801B01
:10277C0041F288339842F3D903209EE0052B09D00F
:10278C00524B1A6A22F001021A621A6A22F00402EF
:10279C001A62E0E74D4B1A6A42F004021A621A6A96
:1027AC0042F001021A62D6E7FFF770FE0646474B6D
:1027BC001B6A13F0020F08D0FFF768FE801B41F272
:1027CC0088339842F3D9032077E0E5B9E369002B0D
:1027DC0072D03E4A526802F00C02082A56D0022BE4
:1027EC0017D03B4B00221A66FFF750FE0446374BBE
:1027FC001B6813F0007F47D0FFF748FE001B022830
:10280C00F5D9032059E0314AD36923F08053D361C1
:10281C00DCE72F4B00221A66FFF738FE05462B4BE0
:10282C001B6813F0007F06D0FFF730FE401B022818
:10283C00F5D9032041E0236AB3F5803F1AD0234930
:10284C004B6823F47413226A606A024313434B608F
:10285C001F4B01221A66FFF719FE04461B4B1B681F
:10286C0013F0007F0ED1FFF711FE001B0228F5D9E3
:10287C00032022E0154A536823F40033A1680B436C
:10288C005360DCE7002018E0002016E0012B16D086
:10289C000E4B5B6803F48031226A914211D103F430
:1028AC007013626A93420ED1002006E0012070473B
:1028BC00012002E0012000E0002002B070BD0120E8
:1028CC00FBE70120F9E70120F7E700BF0010024009
:1028DC00000042420F4B5B6803F00C02082A01D047
:1028EC000D487047C3F383420C49885C13F4803F56
:1028FC000BD0084B5B68C3F34043094AD35C064AD0
:10290C0002FB00F0B0FBF3F07047064B03FB00F04A
:10291C00704700BF0010024000127A00844D00087E
:10292C00944D000800093D00002800F0A08070B50F
:10293C000D460446524B1B6803F007038B420BD227
:10294C004F4A136823F007030B431360136803F01B
:10295C0007038B4240F08D80236813F0020F17D0D1
:10296C0013F0040F04D0474A536843F4E0635360F8
:10297C00236813F0080F04D0424A536843F46053A1
:10298C005360404A536823F0F003A1680B43536033
:10299C00236813F0010F31D06368012B20D0022B78
:1029AC0025D0384A126812F0020F64D035494A68B3
:1029BC0022F0030213434B60FFF768FD0646314BD0
:1029CC005B6803F00C036268B3EB820F16D0FFF761
:1029DC005DFD801B41F288339842F0D9032045E01D
:1029EC00284A126812F4003FE0D101203EE0254A4B
:1029FC00126812F0007FD9D1012037E0204B1B6800
:102A0C0003F00703AB420AD91D4A136823F00703EE
:102A1C002B431360136803F00703AB422DD12368DB
:102A2C0013F0040F06D0174A536823F4E063E168EF
:102A3C000B435360236813F0080F07D0114A5368F7
:102A4C0023F46053216943EAC1035360FFF742FF4B
:102A5C000C4B5B68C3F303130B4AD35CD8400B4B92
:102A6C0018600B4B1868FFF7CDFC002070BD0120DF
:102A7C0070470120FAE70120F8E70120F6E700BFD4
:102A8C000020024000100240984D00086C0000200D
:102A9C0068000020014B1868704700BF6C000020D4
:102AAC0008B5FFF7F7FF044B5B68C3F30223034A37
:102ABC00D35CD84008BD00BF00100240A84D0008F0
:102ACC0008B5FFF7E7FF044B5B68C3F3C223034A67
:102ADC00D35CD84008BD00BF00100240A84D0008D0
:102AEC0070B582B00024A446A6E0804DAA4210D056
:102AFC0007D97F4DAA420CD005F58035AA4208D0E3
:102B0C0013E0A5F58015AA4203D005F57025AA425D
:102B1C0007D18A68002A58D0012A51D04361082471
:102B2C0003E0A5F58015AA42F3D0BEF1FF0F4ED8F5
:102B3C000646BEF1FF0F4CD84FEA8C0233680F25C6
:102B4C00954023EA050304FA02F2134333604B6801
:102B5C0013F0805F6ED0674B9A6942F001029A6164
:102B6C009B6903F001030193019B4FEA9C02951CA6
:102B7C00614B53F825600CF003039D000F23AB4011
:102B8C0026EA03065D4B984229D003F580639842F0
:102B9C0000F08E8003F58063984200F08B8003F583
:102BAC008063984219D004231AE0CC68BDE7CC6846
:102BBC000434BAE7CC680834B7E7CC680C34B4E713
:102BCC0003610824B1E70024AFE70424ADE7061D38
:102BDC00AFE7ACF108029200B0E7032300E000235A
:102BEC00AB4033430232444D45F822304B6813F46A
:102BFC00801F61D0424A936843EA0E0393604B688E
:102C0C0013F4001F5ED03E4AD36843EA0E03D36030
:102C1C004B6813F4003F5BD0394A536843EA0E0308
:102C2C0053604B6813F4803F58D0354A136843EA1D
:102C3C000E0313600CF1010C0A6832FA0CF353D03A
:102C4C00012303FA0CF302EA030E33EA0202F1D178
:102C5C004A68122A3FF649AF122A3FF666AF01A521
:102C6C0055F822F01F2B0008B72B0008C12B0008C9
:102C7C00D32B0008372B0008372B0008372B000804
:102C8C00372B0008372B0008372B0008372B000890
:102C9C00372B0008372B0008372B0008372B000880
:102CAC00372B0008372B0008BB2B0008C72B00085C
:102CBC00012395E7022393E7114A936823EA0E0355
:102CCC0093609CE70E4AD36823EA0E03D3609FE718
:102CDC000B4A536823EA0E035360A2E7084A1368B1
:102CEC0023EA0E031360A5E702B070BD00002210AA
:102CFC0000003110001002400000014000080140AB
:102D0C00000401400AB10161704709040161704778
:102D1C00C36801EA030221EA030141EA02410161AD
:102D2C00704730B40124056CAC40C56B6C60046812
:102D3C0063604368102B05D0036899600368DA6000
:102D4C0030BC704703689A600368D960F8E70000EC
:102D5C0060B310B402460168154B0B441548A0FB38
:102D6C0003031B099B001364134BD363022382F8E8
:102D7C002130086820F47F5020F0300053689468AC
:102D8C002343D4682343146923435469234394692C
:102D9C002343D469234303430B6000209063012336
:102DAC0082F8213082F8200010BC70470120704757
:102DBC00F8FFFDBFCDCCCCCC0000024038B50446AA
:102DCC0090F82000012832D0012084F8200094F8DB
:102DDC002100C0B2012804D0002384F82030022046
:102DEC0038BD022084F821000020A06325682868E3
:102DFC0020F0010028602046FFF793FFE36A5BB1E7
:102E0C002268136843F00E0313602268136843F0C2
:102E1C00010313600020E3E72268136823F0040326
:102E2C0013602268136843F00A031360EDE7022075
:102E3C00D6E790F82130DBB2022B06D00423836353
:102E4C00002380F82030012070470268136823F0BB
:102E5C000E0313600268136823F001031360036C04
:102E6C00C16B012202FA03F34B6080F8212000238E
:102E7C0080F820301846704708B590F82130DBB246
:102E8C00022B03D004238363012008BD026813685E
:102E9C0023F00E0313600268136823F00103136020
:102EAC000368194A934214D0143293421FD014323F
:102EBC0093421ED0143293421ED0143293421ED031
:102ECC001432934202D04FF0807203E04FF4801220
:102EDC0000E001220D4B5A60012380F821300023C1
:102EEC0080F82030436B6BB198470020CDE710225F
:102EFC00F0E74FF48072EDE74FF48052EAE74FF4BD
:102F0C008032E7E70020C0E70800024000000240E2
:102F1C0038B5C36B1A6804682568016C04238B40B0
:102F2C00134235D015F0040F32D0236813F0200F64
:102F3C0003D1236823F0040323600368434A9342BC
:102F4C0014D01432934218D01432934217D0143246
:102F5C00934217D01432934217D01432934202D0BA
:102F6C004FF0806203E04FF4800200E00422384B03
:102F7C005A60C36A03B1984738BD4022F7E74FF453
:102F8C008062F4E74FF48042F1E74FF48022EEE7E1
:102F9C0002238B4013423CD015F0020F39D023682A
:102FAC0013F0200F06D1236823F00A0323600123BA
:102FBC0080F821300368254A934214D0143293428E
:102FCC001CD0143293421BD0143293421BD01432B7
:102FDC0093421BD01432934202D04FF0007203E0A4
:102FEC004FF4001200E00222194B5A60002380F8C3
:102FFC002030836A002BBFD09847BDE72022F3E72F
:10300C004FF40072F0E74FF40052EDE74FF400324A
:10301C00EAE7082303FA01F11142ADD015F0080FCD
:10302C00AAD0236823F00E032360026CC16B01232A
:10303C0003FA02F24A60836380F82130002380F89F
:10304C002030036B002B97D0984795E7080002407F
:10305C0000000240074AD36823F4E0631B041B0CF6
:10306C00000200F4E060034343F0BF6343F4003319
:10307C00D360704700ED00E000B5194BDB68C3F37B
:10308C000223C3F1070CBCF1040F28BF4FF0040C52
:10309C0003F1040EBEF1060F18D9033B4FF0FF3EAF
:1030AC000EFA0CFC21EA0C0199400EFA03F322EA09
:1030BC000303194300280BDB0901C9B200F160407E
:1030CC0000F5614080F800135DF804FB0023E5E790
:1030DC0000F00F000901C9B2024B1954F4E700BF0C
:1030EC0000ED00E014ED00E0002807DB00F01F020B
:1030FC00400901239340024A42F82030704700BF38
:10310C0000E100E00138B0F1807F0BD24FF0E023FA
:10311C005861054AF02182F823100020986107229B
:10312C001A6170470120704700ED00E070B4036A2B
:10313C00026A22F0010202624668826922F073027E
:10314C000C6844EA020523F002028B6813430D4C11
:10315C00A04209D00B4CA0420DD0466085614A6854
:10316C004263036270BC704723F00803CA681343C0
:10317C0023F00403EEE726F440764A6932438E6965
:10318C001643EAE7002C014030B4036A026A22F4C9
:10319C00807202624568C26922F073020C68224395
:1031AC0023F400738C6843EA04230F4CA04209D02B
:1031BC000D4CA0420ED04560C2614A68C2630362E6
:1031CC0030BC704723F40063CC6843EA042323F437
:1031DC008063EDE725F440554C6945EA04158C698C
:1031EC0045EA0415E7E700BF002C014030B4036A40
:1031FC00026A22F4805202624468C26922F4E642F6
:10320C000D6842EA052223F400538D6843EA053326
:10321C00074DA84206D04460C2614A68026403624A
:10322C0030BC704724F480444D6944EA8514F2E7BD
:10323C00002C014003681F4A90420AD0B0F1804F25
:10324C0007D0A2F59432904203D002F580629042EE
:10325C0003D123F070034A681343164A90420AD0F4
:10326C00B0F1804F07D0A2F59432904203D002F512
:10327C008062904203D123F44073CA68134323F055
:10328C0080034A69134303608B68C3620B688362D3
:10329C00084B98420AD001234361036913F0010FD4
:1032AC0003D0036923F00103036170470B690363C7
:1032BC00F1E700BF002C014040B310B5044690F874
:1032CC003D30F3B1022384F83D30214651F8040B14
:1032DC00FFF7B0FF012384F8463084F83E3084F8C1
:1032EC003F3084F8403084F8413084F8423084F820
:1032FC00433084F8443084F8453084F83D30002065
:10330C0010BD80F83C30FEF73FFFDBE70120704733
:10331C00002857D070B50D46044690F83D30002B70
:10332C004BD0022384F83D302268936823F4804309
:10333C0023F007039360214651F8040BFFF77AFF43
:10334C0021688A688B690E6A2868104323F4407CD4
:10335C002CF0030CAA68AB6942EA032343EA0C0382
:10336C0023F47C4323F0FC03EA69D5F80CC04CEA47
:10337C00022C4CEA030C2A6A13032A6943EA02134F
:10338C0043EA0C0326F022066A686D6942EA0512CC
:10339C003243886021688B6123681A62012384F8A8
:1033AC00463084F83E3084F83F3084F8423084F85C
:1033BC00433084F83D30002070BD80F83C30FEF77F
:1033CC0095FEAEE70120704730B4036A026A22F022
:1033DC00100202624468826922F4E6420D6842EAF5
:1033EC00052223F020038D6843EA05130E4DA842F5
:1033FC0009D00D4DA8420ED0446082614A688263A8
:10340C00036230BC704723F08003CD6843EA051398
:10341C0023F04003EDE724F440644D6944EA85044D
:10342C008D6944EA8504E7E7002C014038B590F833
:10343C003C30012B66D004460D46012380F83C300D
:10344C000C2A5AD8DFE802F0075959591B59595917
:10345C003059595944000068FFF768FE2268936997
:10346C0043F0080393612268936923F0040393618A
:10347C002268936929690B43936100203EE0006840
:10348C00FFF7A2FF2268936943F4006393612268FB
:10349C00936923F48063936122689369296943EAF1
:1034AC0001239361002029E00068FFF76DFE22687C
:1034BC00D36943F00803D3612268D36923F0040372
:1034CC00D3612268D36929690B43D361002015E0CD
:1034DC000068FFF78BFE2268D36943F40063D36165
:1034EC002268D36923F48063D3612268D369296984
:1034FC0043EA0123D361002000E00120002384F87B
:10350C003C3038BD0220FCE701F01F01012303FA17
:10351C0001FC036A23EA0C030362036A02FA01F159
:10352C000B4303627047000010B50446084651BBBC
:10353C0094F83E30DBB2013B18BF0123002B5BD16A
:10354C00002839D1022384F83E300122014620683C
:10355C00FFF7DAFF23682A4A93423DD02368284AB2
:10356C0093423ED0B3F1804F3BD0A2F594329342BC
:10357C0037D002F58062934233D01A6842F00102D0
:10358C001A60002039E0042908D008290DD094F8DD
:10359C004130DBB2013B18BF0123CFE794F83F3039
:1035AC00DBB2013B18BF0123C8E794F84030DBB213
:1035BC00013B18BF0123C1E7042805D0082807D018
:1035CC00022384F84130C0E7022384F83F30BCE783
:1035DC00022384F84030B8E75A6C42F400425A6433
:1035EC00BCE79A6802F00702062A07D01A6842F074
:1035FC0001021A60002000E0012010BD0020FCE751
:10360C00002C014038B5044690F83E00C0B294F846
:10361C003F3094F84220D2B294F843C00D46B1B971
:10362C00012849D1012A48D1022384F83E3084F87C
:10363C0042307DB3042D39D0012200212068FFF7E0
:10364C0063FF012204212068FFF75EFF27E0DBB255
:10365C005FFA8CFC042912D0012833D1012B2CD118
:10366C00012A31D1BCF1010F30D1022384F83E3054
:10367C0084F83F3084F8423084F84330D9E7012B8A
:10368C001CD1BCF1010F1BD1022384F83F3084F80C
:10369C004330CEE7012200212068FFF735FF226876
:1036AC00136843F001031360002006E0012204219B
:1036BC002068FFF729FFF2E7012038BD0120FCE765
:1036CC001846FAE70120F8E71846F6E71046F4E743
:1036DC0038B504460D4661B104292BD000221146A1
:1036EC000068FFF711FF002204212068FFF70CFF90
:1036FC0004E0002211460068FFF706FF2368196AF0
:10370C0041F21112114208D1196A40F2444211429D
:10371C0003D11A6822F001021A608DB1042D0FD06A
:10372C00012384F83E3084F83F3084F8423084F82A
:10373C0043300DE0002204210068FFF7E5FEDDE7D1
:10374C0045B9012384F83E30A5B9012384F84230F1
:10375C00002038BD042D05D0082D07D0012384F896
:10376C004130F1E7012384F83F30EDE7012384F881
:10377C004030E9E7042D05D0082D07D0012384F84B
:10378C004530E5E7012384F84330E1E7012384F871
:10379C004430DDE701F00F01042303FA01FC036A56
:1037AC0023EA0C030362036A02FA01F10B4303627E
:1037BC007047000010B50446084659BB94F84230D7
:1037CC00DBB2013B18BF0123002B57D100283AD1A3
:1037DC00022384F84230042201462068FFF7DAFF06
:1037EC002268536C43F4004353642368254A934284
:1037FC0039D0B3F1804F36D0A2F59432934232D007
:10380C0002F5806293422ED01A6842F001021A60CF
:10381C00002034E0042908D008290DD094F8453054
:10382C00DBB2013B18BF0123CEE794F84330DBB287
:10383C00013B18BF0123C7E794F84430DBB2013BCE
:10384C0018BF0123C0E7042805D0082807D002239D
:10385C0084F84530BFE7022384F84330BBE70223EA
:10386C0084F84430B7E79A6802F00702062A07D0BA
:10387C001A6842F001021A60002000E0012010BD1D
:10388C000020FCE7002C014090F83C30012B2CD0A0
:10389C0010B4012380F83C30022380F83D300368DB
:1038AC005A689C6822F0700C0A6842EA0C025A6052
:1038BC0003680F4A93420AD0B3F1804F07D0A2F5A8
:1038CC009432934203D002F58062934204D124F0E7
:1038DC0080044A6814439C60012380F83D30002327
:1038EC0080F83C30184610BC70470220704700BF6F
:1038FC00002C0140026802F10C0353E8003F23F056
:10390C00C0030C3242E800310029F3D1202380F8A7
:10391C0041307047026802F10C0353E8003F23F476
:10392C0090730C3242E800310029F3D1026802F1A5
:10393C00140353E8003F23F00103143242E8003132
:10394C000029F3D1036B012B05D0202380F84230E2
:10395C00002303637047026802F10C0353E8003F35
:10396C0023F010030C3242E800310029F3D1ECE7CC
:10397C0090F84130DBB2212B01D0022070478368D4
:10398C00B3F5805F17D0036A5A1C02621A78036879
:10399C005A60C38C9BB2013B9BB2C3844BB9026887
:1039AC00D36823F08003D3600268D36843F04003EC
:1039BC00D360002070470369002BE4D1036A1B8895
:1039CC000268C3F308035360036A02330362E0E73F
:1039DC0010B504460268136923F44053C1680B43C5
:1039EC00136183680269134342691A430168CB6807
:1039FC0023F4B05323F00C031343CB6002685369D8
:103A0C0023F4407381690B4353610268134B9A4250
:103A1C0020D0FFF745F8024602EB820202EB82024D
:103A2C0063689B00B2FBF3F20D48A0FB023149091D
:103A3C00642303FB11231B013233A0FB03235B091B
:103A4C0003F0F00202EB011203F00F0321681344A0
:103A5C008B6010BDFFF734F80246DDE700380140FB
:103A6C001F85EB5160B310B5044690F8413013B389
:103A7C00242384F841302268D36823F40053D360A4
:103A8C002046FFF7A5FF2268136923F490431361C6
:103A9C002268536923F02A0353612268D36843F4E4
:103AAC000053D36000206064202384F8413084F8F4
:103ABC004230606310BD80F84030FEF707FCD7E75A
:103ACC000120704708B50168CA6822F04002CA603C
:103ADC00202280F8412000F023FF002008BD704711
:103AEC0010B5446A23685A6994F84130DBB2212B33
:103AFC0010D023685A6902F0400294F84230DBB2CD
:103B0C00222B11D0636C43F010036364204600F049
:103B1C0015FF10BD02F08002002AEAD00023E384D6
:103B2C002046FFF7E7FEE4E7002AEBD00023E3850D
:103B3C002046FFF7EFFEE5E708B5406A0023C38592
:103B4C00C38400F0FBFE08BD704790F84230DBB236
:103B5C00222B69D18368B3F5805F4FD0826AB3F5AD
:103B6C00805F04D0002B56D10369002B53D103681E
:103B7C005B681370836A01338362C38D9BB2013B14
:103B8C009BB2C385002B51D100B583B00268D368BA
:103B9C0023F02003D3600268D36823F48073D360CE
:103BAC000268536923F001035361202380F84230EB
:103BBC0000234363036B012B33D10023036302689F
:103BCC0002F10C0353E8003F23F010030C3242E8DF
:103BDC0000310029F3D103681A6812F0100F06D0D7
:103BEC00002201921A6801925B680193019B818DFE
:103BFC00FFF7AAFF002003B05DF804FB0269002A5E
:103C0C00ACD1826A03685B68C3F308031380836AD0
:103C1C0002338362B1E703685B6803F07F031370C0
:103C2C00A8E700F067FEE5E7022070470020704728
:103C3C0030B583B0044602681368D068516913F03C
:103C4C000F0505D113F0200F02D010F0200F19D161
:103C5C002DB111F0010119D110F4907F16D1216B07
:103C6C0001297DD013F0800F03D010F0800F40F0AD
:103C7C00188113F0400F03D010F0400F40F0158165
:103C8C0003B030BD2046FFF760FFF9E713F0010FDA
:103C9C0006D010F4807F03D0626C42F001026264A3
:103CAC0013F0040F04D019B1626C42F0020262648A
:103CBC0013F0020F04D019B1626C42F0040262647A
:103CCC0013F0080F07D010F0200F00D119B1626C5F
:103CDC0042F008026264626C002AD1D013F0200F0B
:103CEC0002D010F0200F29D123685B6903F0400348
:103CFC00626C12F0080F00D163B32046FFF70AFE86
:103D0C0023685B6913F0400F20D0226802F1140382
:103D1C0053E8003F23F04003143242E800310029FD
:103D2C00F3D1E36B73B1634A5A63E06BFFF7A4F80A
:103D3C000028A5D0E06B436B9847A1E72046FFF71E
:103D4C0004FFD1E7204600F0F9FD99E7204600F08A
:103D5C00F5FD95E7204600F0F1FD002363648FE745
:103D6C0013F0100F3FF47EAF10F0100F3FF47AAF4A
:103D7C00002301931368019353680193019B5369CA
:103D8C0013F0400F51D0E26B13685B689BB2002BB1
:103D9C003FF476AFA18D99427FF672AFE3859369BC
:103DAC00202B37D0226802F10C0353E8003F23F498
:103DBC0080730C3242E800310029F3D1226802F101
:103DCC00140353E8003F23F00103143242E800319E
:103DDC000029F3D1226802F1140353E8003F23F0C9
:103DEC004003143242E800310029F3D1202384F837
:103DFC00423000232363226802F10C0353E8003F96
:103E0C0023F010030C3242E800310029F3D1E06BAF
:103E1C00FFF70FF802236363A18DE38D9BB2C91AE0
:103E2C0089B22046FFF790FE2AE7A18DE38D9BB265
:103E3C00C91A89B2E38D9BB2002B3FF421AF002944
:103E4C003FF41EAF226802F10C0353E8003F23F449
:103E5C0090730C3242E800300028F3D1226802F152
:103E6C00140353E8003F23F00103143242E80030FE
:103E7C000028F3D1202384F84230002323632268E6
:103E8C0002F10C0353E8003F23F010030C3242E81C
:103E9C0000300028F3D1022363632046FFF754FE61
:103EAC00EEE62046FFF764FDEAE62046FFF70AFE41
:103EBC00E6E600BF453B000808B5406A01234363B2
:103ECC00036B012B02D0FFF70AFE08BD818D490858
:103EDC00FFF73AFEF9E708B50346406A1B681B6812
:103EEC0013F0200F2BD10023C385026802F10C03C1
:103EFC0053E8003F23F480730C3242E80031002970
:103F0C00F3D1026802F1140353E8003F23F00103DC
:103F1C00143242E800310029F3D1026802F1140393
:103F2C0053E8003F23F04003143242E800310029EB
:103F3C00F3D1202380F84230036B012B07D00023F0
:103F4C004363036B012B0FD000F0D4FC08BD026857
:103F5C0002F10C0353E8003F23F010030C3242E84B
:103F6C0000310029F3D1EAE7818DFFF7EDFDEDE794
:103F7C0030B583B0044613468162828500254564C2
:103F8C00222280F84220C26B1F489062E26B1F48CD
:103F9C00D062E26B1E481063E26B556320680A46E0
:103FAC00011DE06BFEF70AFF019523681A68019268
:103FBC005B680193019B23695BB1226802F10C03DE
:103FCC0053E8003F43F480730C3242E8003100297F
:103FDC00F3D1226802F1140353E8003F43F00103CC
:103FEC00143242E800310029F3D1226802F11403A3
:103FFC0053E8003F43F04003143242E800310029FB
:10400C00F3D1002003B030BDE33E0008C53E0008EC
:10401C00ED3A000808B590F84230DBB2202B08D1FD
:10402C0049B10AB9012008BD00230363FFF7A0FFC3
:10403C00F9E70220F7E70120F5E7704710B50346D2
:10404C000C4A0D490D48006840B10C480068034407
:10405C00521A934206D8094A136010BD0748084CFF
:10406C000460F2E7FCF790F80C2303604FF0FF308C
:10407C00F3E700BF00500020000400000002002005
:10408C00200400200120704708B5FCF77DF81623AA
:10409C0003604FF0FF3008BD08B54FF0FF31FFF75C
:1040AC00F3FFFEE78446002318468B420AD210B475
:1040BC001CF803204240044CA05C01338B42F7D324
:1040CC0010BC7047704700BFB04D0008FFF7B5FF3C
:1040DC000B480C490C4A002302E0D458C45004335A
:1040EC00C4188C42F9D3094A094C002301E013602F
:1040FC000432A242FBD3FCF74DF8FDF707FF7047E3
:10410C00000000207000002070510008700000209A
:10411C0020040020FEE770B504460E4615461146F5
:10412C00FCF7B4FD30B931462046FCF791FD18B9C7
:10413C00204670BD2846FCE73046FAE738B5044601
:10414C0008464FF07E522249FFF7E5FF05462061F5
:10415C000021FCF77DFD18BB0023E373A37D1BB18D
:10416C00E37B03BB0123E37325F0004523681B6845
:10417C00D86AFCF777FB2946FCF7CCFBFCF790FDE3
:10418C00A082E27B012A00D00022A189A068FEF760
:10419C00B9FD63684BB923681B68A28A5A6338BDA2
:1041AC000123E373DAE70023DDE7042B06D0082BA9
:1041BC0009D023681B68A28A1A64F0E723681B687D
:1041CC00A28A9A63EBE723681B68A28ADA63E6E7A4
:1041DC00000080BF10B50446006888B1A37B2BB1EA
:1041EC006168FFF7E7FA28B1002010BD6168FFF79E
:1041FC009BF9F8E700212046FFF7A0FF0120F4E728
:10420C000020F2E710B4BDF8044001600021C0F8B2
:10421C009C10C0F8A010C0F8A410C0F8A810C0F8EA
:10422C00AC10C0F8B01080F8B620A0F8B810A0F808
:10423C00BA10C0F8BC10C0F8C010C0F8C4100AB155
:10424C00022A01D1A0F89830013AD2B2012A01D940
:10425C0010BC704704B12346A0F89A30F8E7014629
:10426C00006898B108B5012381F8B430002381F8B7
:10427C00B53091F8B6301BB1022B01D0012004E00F
:10428C0001220431FFF7C6FE012008BD0020704753
:10429C0010B50446FEF7FAF8D4F8A830C31AC4F8DF
:1042AC00B030C4F8A800002384F8B53010BD10B5A8
:1042BC000446B0F8B820B0F8BA309A4201D10020C8
:1042CC0010BD0846B4F8982004F16801FBF796FF7E
:1042DC00B4F8B830A4F8BA300120F1E703681868D4
:1042EC007047704770B50446FEF7D0F8054694F851
:1042FC00B43043B32379A52B16D0D4F8BC3001339A
:10430C00C4F8BC3001212068FFF7EBFF214651F8BF
:10431C00040B0122FFF77EFE012384F8B730C4F8AA
:10432C009C5094F8B70070BD002684F8B460B4F8C3
:10433C0098200132214651F8050B92B2FFF76AFE24
:10434C0084F8B760EBE7661DB4F898103046FFF7B9
:10435C00A9FEB4F89820531C23441B79834214D033
:10436C00D4F8C0300133C4F8C03003212068FFF703
:10437C00B8FF032384F8B730012284F8B420214617
:10438C0051F8040BFFF746FEC9E7314604F168000B
:10439C00FBF734FF022384F8B730B4F8B8304FF68B
:1043AC00FF7293420AD00133A4F8B830D4F8A43089
:1043BC00EB1AC4F8AC30C4F8A450DDE70023A4F821
:1043CC00B830F3E708B5816CC06CFCF799F908BDFF
:1043DC004068704780687047C06870472DE9F041AD
:1043EC0004460D4616461F4600212846FCF730FCB5
:1043FC0010BB00213046FCF72BFCE8B900213846F5
:10440C00FCF726FCC0B96560A660E760B4F924002F
:10441C00FCF72CFA0949FCF731FB80462563014671
:10442C003046FCF777FA606341463846FCF726FBCA
:10443C00A06325616661A761BDE8F08100007A4444
:10444C00D9B170B504460E460846FCF70BFA054682
:10445C00B4F92400FCF70AFA01462846FCF70EFBD7
:10446C0005460146606BFCF755FA60632946A06B64
:10447C00FCF704FBA063A68470BD7047006A70470C
:10448C00C0697047F8B50446B0F92400FCF7EEF9A2
:10449C001149FCF7F3FA0646676827630146A068E2
:1044AC00FCF738FA054660633146E068FCF7E6FA3B
:1044BC00A06394F82C30012B03D0FDF7E7FF2064A8
:1044CC00F8BD07F10047276305F10045656300F16E
:1044DC000040A063F1E700BF00007A4410B4134C15
:1044EC00046041608260C360019BC361029B0362F4
:1044FC00BDF90C308384049B83629DF8143080F8E2
:10450C002C309DF8183080F82D309DF81C3080F838
:10451C002E300023C363002280F844208364C364DC
:10452C000365436580F8582010BC7047C84E0008DE
:10453C0090F82E30012B01D0002070472DE9F04F60
:10454C0083B00446FDF7A2FF019085B2B4F8403069
:10455C00ED1AADB2E668A1693046FCF76FFB48B1C5
:10456C006169A068FCF76AFB20B121696068FCF7FF
:10457C0065FB40B923689F683346A2686168204692
:10458C00B84700232365B4F924309D426DDBD4F881
:10459C0048804146E06CFCF7B3F80546E16B4046B9
:1045AC00FCF7AEF80746D4F8509025F000414FF0D8
:1045BC000106A06AFCF76AFB08B94FF00006F3B2DB
:1045CC0084F8586053B194F84430042B09D8013363
:1045DC0084F84430002384F8583002E0002384F837
:1045EC0044302946606BFCF795F94946FCF78AF88C
:1045FC00064694F82DB0BBF1010F2AD0D4F81C90CC
:10460C00D4F820A0524649463046FFF784FD0646B2
:10461C00BBF1000F27D12946206BFCF77BF905462F
:10462C003946A06BFCF776F901463046FCF768F882
:10463C002946FCF767F852464946FFF76CFD606562
:10464C002665C4F83C80019B2364012003B0BDE8BF
:10465C00F08F3946206BFCF75DF901463046FCF7CC
:10466C004FF80646CAE70025DAE70020EEE770B5FA
:10467C0004460D46164611462846FCF7FDFA28B9A5
:10468C00E561266294F82E30012B00D070BD3246C5
:10469C002946606DFFF73FFD606532462946206D67
:1046AC00FFF739FD2065F1E738B504460D4690F863
:1046BC002E300BB9012902D084F82E5038BD406D34
:1046CC002065A36CE363226AE169FFF724FD206592
:1046DC00F2E7034602681268506AB0F5004F01DD3C
:1046EC00A0F580301B7F03B970474042FCE710B542
:1046FC000446FFF7EEFFE3680344E36023681B689E
:10470C0000225A62FDF7C2FEA06110BD10B504462E
:10471C00006880B13C21FEF7DBFF3C212068FEF7EE
:10472C0071FF08B1002010BD2046FFF7E0FF002309
:10473C00E3600120F7E70020F5E70000F8B5044638
:10474C00FDF7A4FEA569451BE388AB4201DDA0681B
:10475C00F8BD2046FFF7BDFFFCF788F80F49FCF7C2
:10476C00D9F80F49FCF7D6F80646B4F90400FCF763
:10477C007DF86169FBF7C6FF07462846FCF776F81B
:10478C0001463846FCF7C6F801463046FCF776F988
:10479C00A0602046FFF7ABFFD9E700BFDB0FC94095
:1047AC0000007A44012800D070474FF6FF739942FD
:1047BC00FAD12DE9F04788B0424C00226260A26029
:1047CC00414B04F10C0593E8030085E8030004F168
:1047DC001405D968986885E8030004F11C0559692B
:1047EC00186985E80300394961620025A562384BD8
:1047FC00E3624FF48040208684F8325084F83A50BB
:10480C00E1630421216463644FF40043A4F848304D
:10481C0084F84A5084F852502E4B636540F23E3374
:10482C00A4F858300A26A4F85A6025666566A26674
:10483C0084F8705028496167A4F87830A4F87A603D
:10484C00C4F88050C4F88450C4F88820012784F838
:10485C009070C4F89450C4F8985006970595049538
:10486C00DFF878A0CDF80CA00296DFF87490CDF8A4
:10487C000490DFF87080CDF800801B4B4FF0824223
:10488C001A4904F19C00FFF729FE0697059504953B
:10489C00CDF80CA00296CDF80490CDF80080236AD8
:1048AC00A269216904F1F800FFF718FE06230093B2
:1048BC00082302220E4904F5AA70FFF7A3FC08B0E6
:1048CC00BDE8F087040200200C4D000828010020F0
:1048DC0000100140E0000020980000206F12833A85
:1048EC0000009842000098C20AD7A33B0000C040C9
:1048FC00B401002010B504680748FFF7EFFC8442B0
:10490C0000D010BD4FF480610448FEF701FA024854
:10491C00FFF7E8FCF5E700BF580300200008014052
:10492C0010B504680448FFF7D9FC844200D010BDD0
:10493C000148FFF7ADFCFAE75803002010B50468F6
:10494C000448FFF7CBFC844200D010BD0148FFF7B0
:10495C0086FCFAE75803002008B54FF6FF710120DA
:10496C00FFF720FF08BD000010B50446FDF78EFDD3
:10497C00234643F8240B1846FFF72CFC04F13C00AB
:10498C00FFF728FC04F15400FFF7C0FE04F174009B
:10499C00FFF7BCFE04F19C00FFF774FD04F1F80076
:1049AC00FFF770FD04F5AA70FFF759FC01224FF4D4
:1049BC0000510248FEF7A6F910BD00BF00100140DF
:1049CC00F0B583B004466B460868496803C3019888
:1049DC000146FBF797FE064624490098FCF74EF873
:1049EC00054623493046FBF795FF2249FCF746F86C
:1049FC0007462946FBF786FE064639462846FBF74E
:104A0C007FFE0546C4F8446104F17400FFF796FE7E
:104A1C00C4F8400104F1F800FFF78AFD1649D4F8F8
:104A2C004C01FCF72BF81549FBF774FF014604F118
:104A3C003C00FFF783FBC4F8E85004F15400FFF787
:104A4C007DFEC4F8E40004F19C00FFF771FD0A49F7
:104A5C00D4F8F000FCF712F80849FBF75BFF0146AD
:104A6C0004F12400FFF76AFB03B0F0BDB98D063DDD
:104A7C008FC2F53DB98D863D000098423333733FAC
:104A8C0038B50446FDF702FD2368C01A092800D882
:104A9C0038BDFDF7FBFC254645F8040B294604F50B
:104AAC00AA70FFF704FC29462046FFF789FFEFE7C1
:104ABC0008B50348FFF758FF0148FFF7E1FFFBE794
:104ACC00040200207FB500241023CDE902340368D2
:104ADC0015469E69CDE900446B461268B0479DF8B7
:104AEC00043003F00603062B09BF01202046009B6F
:104AFC002B6004B070BD0098904214BF01200620BA
:104B0C007047000010B50446024B036000F0D1F86A
:104B1C00204610BD304F000810B50446FFF7F2FFD9
:104B2C002046082100F042F8204610BD2DE9F04146
:104B3C00DDF818801F46DDE9083498450646154611
:104B4C0007D1079900F0B8F818B165710020BDE8DD
:104B5C00F0813946304600F0AFF80028F6D001233A
:104B6C00C4F800802571A371F0E738B515461C46D2
:104B7C0000F0A2F820B10823E3600623256023711E
:104B8C0038BD2DE9F04105460C4616461F4600F08F
:104B9C0093F848B9032F07D8236832462946204694
:104BAC00BDE8F0415B691847BDE8F08100F09AB8A8
:104BBC0010B50446024B0360FFF7A4FF204610BD5E
:104BCC00904F000810B50446FFF7F2FF20460C2169
:104BDC00FFF7ECFF204610BD2DE9F041DDF8188001
:104BEC00064690450F4615461C460BD0B0682A4623
:104BFC000368CDF818801E6A39462346B446BDE8D2
:104C0C00F0416047194600F057F80028EED0062016
:104C1C00BDE8F0812DE9F14F0D46DDE90A4BDDE9E8
:104C2C000CA6194681461746984600F045F890B1F7
:104C3C00002D3460377109DB2C44A2450CBF0624CF
:104C4C000124B471002001B0BDE8F08F0235F9D118
:104C5C000123B371F6E7544506D15946484600F096
:104C6C002BF808B17771EDE7D9F808003A460368DC
:104C7C00CDE90CA6CDE90A4BDC6929464346A4468E
:104C8C0001B0BDE8F04F60472DE9F04107460C46F6
:104C9C0015461E46FFF769FF48B9B8682A460368EF
:104CAC0021469F693346BC46BDE8F0416047BDE8EC
:104CBC00F081704700207047814208B50ED04068E3
:104CCC0003782A2B0CD049680B782A2B08BF0131AA
:104CDC00FBF730FCB0FA80F0400908BD0120FCE77E
:104CEC000020FAE7FBF782BAF8B500BFF8BC08BCA5
:104CFC009E467047F8B500BFF8BC08BC9E4670478E
:104D0C000000C0400000C040000000410000004115
:104D1C000AD7A33B0AD7A33B000000000000000009
:104D2C000000000000000000000000000000000077
:104D3C000000000000000000000000000000000067
:104D4C000000000000000000000000000000000057
:104D5C000000000000000000000000000000000047
:104D6C000000000000000000000000000000000037
:104D7C0000000000000000000203040506070809FB
:104D8C000A0B0C0D0E0F10100102000000000000A9
:104D9C0000000000010203040607080900000000DF
:104DAC000102030400070E091C1B1215383F363193
:104DBC0024232A2D70777E796C6B6265484F4641AF
:104DCC0054535A5DE0E7EEE9FCFBF2F5D8DFD6D19F
:104DDC00C4C3CACD90979E998C8B8285A8AFA6A18F
:104DEC00B4B3BABDC7C0C9CEDBDCD5D2FFF8F1F67F
:104DFC00E3E4EDEAB7B0B9BEABACA5A28F8881866F
:104E0C0093949D9A2720292E3B3C35321F1811165E
:104E1C0003040D0A5750595E4B4C45426F6861664E
:104E2C0073747D7A898E878095929B9CB1B6BFB83E
:104E3C00ADAAA3A4F9FEF7F0E5E2EBECC1C6CFC82E
:104E4C00DDDAD3D4696E676075727B7C51565F581E
:104E5C004D4A4344191E171005020B0C21262F280E
:104E6C003D3A33344E49404752555C5B7671787FFE
:104E7C006A6D64633E39303722252C2B0601080FEE
:104E8C001A1D1413AEA9A0A7B2B5BCBB9691989FDE
:104E9C008A8D8483DED9D0D7C2C5CCCBE6E1E8EFCE
:104EAC00FAFDF4F3304F0008B84E00083350494473
:104EBC000000000000000000B04E00089144000803
:104ECC003D450008E94300087B460008B54600084C
:104EDC004D440008894400088D440008D143000863
:104EEC00DD430008E1430008E5430008904F00084B
:104EFC00044F0008B44F00084E31305F5F63787880
:104F0C00616269763131375F5F636C6173735F74B3
:104F1C007970655F696E666F4500000000000000E7
:104F2C00F84E0008114B0008254B0008C14C000836
:104F3C00C14C00088F4B0008D14A0008774B000881
:104F4C00394B0008034B0008904F0008604F0008D5
:104F5C00F84E00084E31305F5F6378786162697695
:104F6C003132305F5F73695F636C6173735F747947
:104F7C0070655F696E666F45000000000000000000
:104F8C00544F0008BD4B0008D14B0008C14C000821
:104F9C00C14C00088F4B0008D14A0008954C000802
:104FAC00214C0008E54B0008304F0008BC4F0008AE
:104FBC00537439747970655F696E666F0000000018
:104FCC0008B10181B0B000840000000008B101817B
:104FDC00B0B000840000000008B10181B0B00084C2
:104FEC000000000008B10181B0B000840000000096
:104FFC00F0BCFF7F0100000084BDFF7FB0A90280E0
:10500C001CBEFF7FB0B0A8806CBEFF7F010000000B
:10501C0078BEFF7FB0B0AA80B0BEFF7FAE71B28009
:10502C0080BFFF7F010000007CBFFF7FAB3F38805B
:10503C00DCBFFF7F01000000E8BFFF7FB0B0AA809B
:10504C0024C0FF7F01000000D4C0FF7FAA0DB280F6
:10505C004CC1FF7FB0AF0880ECC3FF7F01000000A4
:10506C00F0C3FF7FAD3F02805CC6FF7F01000000F4
:10507C0038C8FF7F008404804CC8FF7F010000000B
:10508C0048C8FF7FB0AD048024CBFF7F0084048030
:10509C004CCBFF7F44FFFF7F50CBFF7F48FFFF7F50
:1050AC005CCBFF7F0100000094F0FF7FA908B1806A
:1050BC0024F1FF7FB0B0A8804CF1FF7F010000000D
:1050CC009EF1FF7FFCFEFF7FC8F1FF7FB0B0A88090
:1050DC00DEF1FF7F010000000CF2FF7FB0B0AA8070
:1050EC00E4F2FF7F010000009CF3FF7FAB08B1806E
:1050FC00ECF3FF7F0100000038F4FF7FB0AF0280BB
:10510C006EF5FF7F01000000E6F5FF7FB0B0A880D0
:10511C002CF6FF7FAB08B1808CF6FF7F01000000FE
:10512C00D4F7FF7FB0B0A88030F8FF7F01000000FB
:10513C0038F8FF7FB0B0A88088F8FF7FB0AB028052
:10514C0040F9FF7FA908B18068F9FF7F80FEFF7FDF
:08515C0074F9FF7F010000005F
:0851640075010008654900080F
:04516C004D010008E9
:105170000400002000000000644D0008444D0008B9
:10518000244D0008000000000000000000000000A6
:10519000000000000000000000000000000000000F
:1051A00000000000000000000000000000000000FF
:1051B00000000000000000000000000000000000EF
:1051C00000000000000000000000000000000000DF
:1051D00000000000010000001000000000127A0032
:04000005080040D9D6
:00000001FF
